{"abi":[{"type":"constructor","inputs":[{"name":"_lEthToken","type":"address","internalType":"address"}],"stateMutability":"nonpayable"},{"type":"function","name":"balances","inputs":[{"name":"","type":"address","internalType":"address"}],"outputs":[{"name":"","type":"uint256","internalType":"uint256"}],"stateMutability":"view"},{"type":"function","name":"deposit","inputs":[],"outputs":[],"stateMutability":"payable"},{"type":"function","name":"getBalance","inputs":[{"name":"user","type":"address","internalType":"address"}],"outputs":[{"name":"","type":"uint256","internalType":"uint256"}],"stateMutability":"view"},{"type":"function","name":"lEth","inputs":[],"outputs":[{"name":"","type":"address","internalType":"contract lEthToken"}],"stateMutability":"view"},{"type":"function","name":"totalStaked","inputs":[],"outputs":[{"name":"","type":"uint256","internalType":"uint256"}],"stateMutability":"view"},{"type":"function","name":"withdraw","inputs":[{"name":"amount","type":"uint256","internalType":"uint256"}],"outputs":[],"stateMutability":"nonpayable"},{"type":"event","name":"Staked","inputs":[{"name":"user","type":"address","indexed":true,"internalType":"address"},{"name":"amount","type":"uint256","indexed":false,"internalType":"uint256"}],"anonymous":false},{"type":"event","name":"Withdrawn","inputs":[{"name":"user","type":"address","indexed":true,"internalType":"address"},{"name":"amount","type":"uint256","indexed":false,"internalType":"uint256"}],"anonymous":false}],"bytecode":{"object":"0x608060405234801561001057600080fd5b5060405161051c38038061051c83398101604081905261002f91610054565b600080546001600160a01b0319166001600160a01b0392909216919091179055610084565b60006020828403121561006657600080fd5b81516001600160a01b038116811461007d57600080fd5b9392505050565b610489806100936000396000f3fe6080604052600436106100555760003560e01c806327e235e31461005a5780632e1a7d4d1461009a57806364083a22146100bc578063817b1cd2146100f4578063d0e30db01461010a578063f8b2cb4f14610112575b600080fd5b34801561006657600080fd5b506100876100753660046103c8565b60016020526000908152604090205481565b6040519081526020015b60405180910390f35b3480156100a657600080fd5b506100ba6100b53660046103f8565b610148565b005b3480156100c857600080fd5b506000546100dc906001600160a01b031681565b6040516001600160a01b039091168152602001610091565b34801561010057600080fd5b5061008760025481565b6100ba6102aa565b34801561011e57600080fd5b5061008761012d3660046103c8565b6001600160a01b031660009081526001602052604090205490565b336000908152600160205260409020548111156101a35760405162461bcd60e51b8152602060048201526014602482015273496e73756666696369656e742062616c616e636560601b60448201526064015b60405180910390fd5b33600090815260016020526040812080548392906101c2908490610427565b9250508190555080600260008282546101db9190610427565b9091555050600054604051632770a7eb60e21b8152336004820152602481018390526001600160a01b0390911690639dc29fac90604401600060405180830381600087803b15801561022c57600080fd5b505af1158015610240573d6000803e3d6000fd5b505060405133925083156108fc02915083906000818181858888f19350505050158015610271573d6000803e3d6000fd5b5060405181815233907f7084f5476618d8e60b11ef0d7d3f06914655adb8793e28ff7f018d4c76d505d59060200160405180910390a250565b600034116102f15760405162461bcd60e51b815260206004820152601460248201527321b0b73737ba1039ba30b5b290181022ba3432b960611b604482015260640161019a565b3360009081526001602052604081208054349290610310908490610440565b9250508190555034600260008282546103299190610440565b90915550506000546040516340c10f1960e01b81523360048201523460248201526001600160a01b03909116906340c10f1990604401600060405180830381600087803b15801561037957600080fd5b505af115801561038d573d6000803e3d6000fd5b50506040513481523392507f9e71bc8eea02a63969f509818f2dafb9254532904319f9dbda79b67bd34a5f3d915060200160405180910390a2565b6000602082840312156103da57600080fd5b81356001600160a01b03811681146103f157600080fd5b9392505050565b60006020828403121561040a57600080fd5b5035919050565b634e487b7160e01b600052601160045260246000fd5b8181038181111561043a5761043a610411565b92915050565b8082018082111561043a5761043a61041156fea26469706673582212206d0d3d5084165c491837ee453164c7697aaec04a293468e2ac2c0db5ff79943464736f6c63430008160033","linkReferences":{}},"methodIdentifiers":{"balances(address)":"27e235e3","deposit()":"d0e30db0","getBalance(address)":"f8b2cb4f","lEth()":"64083a22","totalStaked()":"817b1cd2","withdraw(uint256)":"2e1a7d4d"},"id":2}