{"abi":[{"type":"constructor","inputs":[{"name":"_mailbox","type":"address","internalType":"address"},{"name":"_l3Domain","type":"uint32","internalType":"uint32"},{"name":"_l3Bridge","type":"address","internalType":"address"},{"name":"_initOwner","type":"address","internalType":"address"}],"stateMutability":"nonpayable"},{"type":"function","name":"l3Bridge","inputs":[],"outputs":[{"name":"","type":"address","internalType":"address"}],"stateMutability":"view"},{"type":"function","name":"l3Domain","inputs":[],"outputs":[{"name":"","type":"uint32","internalType":"uint32"}],"stateMutability":"view"},{"type":"function","name":"lockEther","inputs":[],"outputs":[],"stateMutability":"payable"},{"type":"function","name":"mailbox","inputs":[],"outputs":[{"name":"","type":"address","internalType":"contract IHypERC20"}],"stateMutability":"view"},{"type":"function","name":"nonce","inputs":[],"outputs":[{"name":"","type":"uint256","internalType":"uint256"}],"stateMutability":"view"},{"type":"function","name":"owner","inputs":[],"outputs":[{"name":"","type":"address","internalType":"address"}],"stateMutability":"view"},{"type":"function","name":"processedNonces","inputs":[{"name":"","type":"uint256","internalType":"uint256"}],"outputs":[{"name":"","type":"bool","internalType":"bool"}],"stateMutability":"view"},{"type":"function","name":"renounceOwnership","inputs":[],"outputs":[],"stateMutability":"nonpayable"},{"type":"function","name":"setL3Bridge","inputs":[{"name":"_l3Bridge","type":"address","internalType":"address"}],"outputs":[],"stateMutability":"nonpayable"},{"type":"function","name":"setL3Domain","inputs":[{"name":"_l3Domain","type":"uint32","internalType":"uint32"}],"outputs":[],"stateMutability":"nonpayable"},{"type":"function","name":"transferOwnership","inputs":[{"name":"newOwner","type":"address","internalType":"address"}],"outputs":[],"stateMutability":"nonpayable"},{"type":"event","name":"DebugLog","inputs":[{"name":"message","type":"string","indexed":false,"internalType":"string"},{"name":"value","type":"uint256","indexed":false,"internalType":"uint256"},{"name":"recipient","type":"bytes32","indexed":false,"internalType":"bytes32"}],"anonymous":false},{"type":"event","name":"EtherLocked","inputs":[{"name":"user","type":"address","indexed":true,"internalType":"address"},{"name":"amount","type":"uint256","indexed":false,"internalType":"uint256"},{"name":"nonce","type":"uint256","indexed":false,"internalType":"uint256"}],"anonymous":false},{"type":"event","name":"OwnershipTransferred","inputs":[{"name":"previousOwner","type":"address","indexed":true,"internalType":"address"},{"name":"newOwner","type":"address","indexed":true,"internalType":"address"}],"anonymous":false},{"type":"error","name":"OwnableInvalidOwner","inputs":[{"name":"owner","type":"address","internalType":"address"}]},{"type":"error","name":"OwnableUnauthorizedAccount","inputs":[{"name":"account","type":"address","internalType":"address"}]}],"bytecode":{"object":"0x608060405234801561001057600080fd5b50604051610b20380380610b2083398101604081905261002f916101cd565b806001600160a01b03811661005f57604051631e4fbdf760e01b8152600060048201526024015b60405180910390fd5b61006881610161565b506001600160a01b0384166100bf5760405162461bcd60e51b815260206004820152601760248201527f496e76616c6964206d61696c626f7820616464726573730000000000000000006044820152606401610056565b6001600160a01b0382166101155760405162461bcd60e51b815260206004820152601960248201527f496e76616c6964204c33206272696467652061646472657373000000000000006044820152606401610056565b50600180546001600160a01b039485166001600160a01b031991821617909155600280549290941663ffffffff909316600160a01b02166001600160c01b03199091161717905561022c565b600080546001600160a01b038381166001600160a01b0319831681178455604051919092169283917f8be0079c531659141344cd1fd0a4f28419497f9722a3daafe3b4186f6b6457e09190a35050565b80516001600160a01b03811681146101c857600080fd5b919050565b600080600080608085870312156101e357600080fd5b6101ec856101b1565b9350602085015163ffffffff8116811461020557600080fd5b9250610213604086016101b1565b9150610221606086016101b1565b905092959194509250565b6108e58061023b6000396000f3fe60806040526004361061009c5760003560e01c806391dae5191161006457806391dae51914610150578063affed0e014610190578063d5438eae146101b4578063df06f86e146101d4578063eb8e99e5146101f4578063f2fde38b1461021457600080fd5b8063014471ff146100a157806366f9a508146100df5780637027a463146100e9578063715018a6146101095780638da5cb5b1461011e575b600080fd5b3480156100ad57600080fd5b506002546100c590600160a01b900463ffffffff1681565b60405163ffffffff90911681526020015b60405180910390f35b6100e7610234565b005b3480156100f557600080fd5b506100e7610104366004610646565b6104c9565b34801561011557600080fd5b506100e7610549565b34801561012a57600080fd5b506000546001600160a01b03165b6040516001600160a01b0390911681526020016100d6565b34801561015c57600080fd5b5061018061016b366004610676565b60036020526000908152604090205460ff1681565b60405190151581526020016100d6565b34801561019c57600080fd5b506101a660045481565b6040519081526020016100d6565b3480156101c057600080fd5b50600154610138906001600160a01b031681565b3480156101e057600080fd5b50600254610138906001600160a01b031681565b34801561020057600080fd5b506100e761020f36600461068f565b61055d565b34801561022057600080fd5b506100e761022f366004610646565b61058b565b600034116102895760405162461bcd60e51b815260206004820152601760248201527f4d7573742073656e6420457468657220746f206c6f636b00000000000000000060448201526064015b60405180910390fd5b60048054908190600061029b836106b5565b90915550506002546000906001600160a01b0316604080516060808252600f908201526e084caccdee4ca40c8d2e6e0c2e8c6d608b1b60808201523460208201529081018290529091507fc27351c9b776f58315f97d6293aac97cdd498d3439f21021dff87774f383188a9060a00160405180910390a160015460025460405163206d3a2d60e21b8152600160a01b90910463ffffffff1660048201526024810183905234604482018190526001600160a01b03909216916381b4e8b4916064016000604051808303818588803b15801561037557600080fd5b505af193505050508015610387575060015b61048a576103936106dc565b806308c379a00361040757506103a7610733565b806103b25750610409565b7fc27351c9b776f58315f97d6293aac97cdd498d3439f21021dff87774f383188a8134846040516103e593929190610803565b60405180910390a18060405162461bcd60e51b81526004016102809190610828565b505b3d808015610433576040519150601f19603f3d011682016040523d82523d6000602084013e610438565b606091505b507fc27351c9b776f58315f97d6293aac97cdd498d3439f21021dff87774f383188a348360405161046a92919061083b565b60405180910390a160405162461bcd60e51b81526004016102809061087a565b604080513481526020810184905233917f010dba25976dc5d04d71eeb429940be4c724e9cd33c018b77ce034e4d9200b1a910160405180910390a25050565b6104d16105c9565b6001600160a01b0381166105275760405162461bcd60e51b815260206004820152601960248201527f496e76616c6964204c33206272696467652061646472657373000000000000006044820152606401610280565b600280546001600160a01b0319166001600160a01b0392909216919091179055565b6105516105c9565b61055b60006105f6565b565b6105656105c9565b6002805463ffffffff909216600160a01b0263ffffffff60a01b19909216919091179055565b6105936105c9565b6001600160a01b0381166105bd57604051631e4fbdf760e01b815260006004820152602401610280565b6105c6816105f6565b50565b6000546001600160a01b0316331461055b5760405163118cdaa760e01b8152336004820152602401610280565b600080546001600160a01b038381166001600160a01b0319831681178455604051919092169283917f8be0079c531659141344cd1fd0a4f28419497f9722a3daafe3b4186f6b6457e09190a35050565b60006020828403121561065857600080fd5b81356001600160a01b038116811461066f57600080fd5b9392505050565b60006020828403121561068857600080fd5b5035919050565b6000602082840312156106a157600080fd5b813563ffffffff8116811461066f57600080fd5b6000600182016106d557634e487b7160e01b600052601160045260246000fd5b5060010190565b600060033d11156106f55760046000803e5060005160e01c5b90565b601f8201601f1916810167ffffffffffffffff8111828210171561072c57634e487b7160e01b600052604160045260246000fd5b6040525050565b600060443d10156107415790565b6040516003193d81016004833e81513d67ffffffffffffffff816024840111818411171561077157505050505090565b82850191508151818111156107895750505050505090565b843d87010160208285010111156107a35750505050505090565b6107b2602082860101876106f8565b509095945050505050565b6000815180845260005b818110156107e3576020818501810151868301820152016107c7565b506000602082860101526020601f19601f83011685010191505092915050565b60608152600061081660608301866107bd565b60208301949094525060400152919050565b60208152600061066f60208301846107bd565b60608152600061086a60608301600f81526e2637bb96b632bb32b61032b93937b960891b602082015260400190565b6020830194909452506040015290565b6020815260006108a960208301600f81526e2637bb96b632bb32b61032b93937b960891b602082015260400190565b9291505056fea2646970667358221220cf3799cb11b20277adf8b759ce8e0f27aa682df9a3a1234978ddf5a17140b32764736f6c63430008160033","linkReferences":{}},"methodIdentifiers":{"l3Bridge()":"df06f86e","l3Domain()":"014471ff","lockEther()":"66f9a508","mailbox()":"d5438eae","nonce()":"affed0e0","owner()":"8da5cb5b","processedNonces(uint256)":"91dae519","renounceOwnership()":"715018a6","setL3Bridge(address)":"7027a463","setL3Domain(uint32)":"eb8e99e5","transferOwnership(address)":"f2fde38b"},"id":0}