{"abi":[{"type":"constructor","inputs":[{"name":"_vault","type":"address","internalType":"address"}],"stateMutability":"nonpayable"},{"type":"function","name":"handle","inputs":[{"name":"_origin","type":"uint32","internalType":"uint32"},{"name":"_sender","type":"bytes32","internalType":"bytes32"},{"name":"_data","type":"bytes","internalType":"bytes"}],"outputs":[],"stateMutability":"payable"},{"type":"function","name":"vault","inputs":[],"outputs":[{"name":"","type":"address","internalType":"contract Vault"}],"stateMutability":"view"}],"bytecode":{"object":"0x608060405234801561001057600080fd5b506040516102a13803806102a183398101604081905261002f91610054565b600080546001600160a01b0319166001600160a01b0392909216919091179055610084565b60006020828403121561006657600080fd5b81516001600160a01b038116811461007d57600080fd5b9392505050565b61020e806100936000396000f3fe6080604052600436106100295760003560e01c806356d5d4751461002e578063fbfa77cf14610043575b600080fd5b61004161003c366004610105565b61007f565b005b34801561004f57600080fd5b50600054610063906001600160a01b031681565b6040516001600160a01b03909116815260200160405180910390f35b6000808061008f84860186610197565b92509250925060008054906101000a90046001600160a01b03166001600160a01b031663d0e30db0836040518263ffffffff1660e01b81526004016000604051808303818588803b1580156100e357600080fd5b505af11580156100f7573d6000803e3d6000fd5b505050505050505050505050565b6000806000806060858703121561011b57600080fd5b843563ffffffff8116811461012f57600080fd5b935060208501359250604085013567ffffffffffffffff8082111561015357600080fd5b818701915087601f83011261016757600080fd5b81358181111561017657600080fd5b88602082850101111561018857600080fd5b95989497505060200194505050565b6000806000606084860312156101ac57600080fd5b83356001600160a01b03811681146101c357600080fd5b9560208501359550604090940135939250505056fea26469706673582212205d3346ce6f94451fed967ef74b962b413daca3254dcb02fcac6b2005dbda6c3164736f6c63430008160033","linkReferences":{}},"methodIdentifiers":{"handle(uint32,bytes32,bytes)":"56d5d475","vault()":"fbfa77cf"},"id":1}